{
  "contractName": "BnbStaking",
  "abi": [
    {
      "inputs": [
        {
          "internalType": "contract IBEP20",
          "name": "_lp",
          "type": "address"
        },
        {
          "internalType": "contract IBEP20",
          "name": "_rewardToken",
          "type": "address"
        },
        {
          "internalType": "uint256",
          "name": "_rewardPerBlock",
          "type": "uint256"
        },
        {
          "internalType": "uint256",
          "name": "_startBlock",
          "type": "uint256"
        },
        {
          "internalType": "uint256",
          "name": "_bonusEndBlock",
          "type": "uint256"
        },
        {
          "internalType": "address",
          "name": "_adminAddress",
          "type": "address"
        },
        {
          "internalType": "address",
          "name": "_wbnb",
          "type": "address"
        }
      ],
      "stateMutability": "nonpayable",
      "type": "constructor"
    },
    {
      "anonymous": false,
      "inputs": [
        {
          "indexed": true,
          "internalType": "address",
          "name": "user",
          "type": "address"
        },
        {
          "indexed": false,
          "internalType": "uint256",
          "name": "amount",
          "type": "uint256"
        }
      ],
      "name": "Deposit",
      "type": "event"
    },
    {
      "anonymous": false,
      "inputs": [
        {
          "indexed": true,
          "internalType": "address",
          "name": "user",
          "type": "address"
        },
        {
          "indexed": false,
          "internalType": "uint256",
          "name": "amount",
          "type": "uint256"
        }
      ],
      "name": "EmergencyWithdraw",
      "type": "event"
    },
    {
      "anonymous": false,
      "inputs": [
        {
          "indexed": true,
          "internalType": "address",
          "name": "previousOwner",
          "type": "address"
        },
        {
          "indexed": true,
          "internalType": "address",
          "name": "newOwner",
          "type": "address"
        }
      ],
      "name": "OwnershipTransferred",
      "type": "event"
    },
    {
      "anonymous": false,
      "inputs": [
        {
          "indexed": true,
          "internalType": "address",
          "name": "user",
          "type": "address"
        },
        {
          "indexed": false,
          "internalType": "uint256",
          "name": "amount",
          "type": "uint256"
        }
      ],
      "name": "Withdraw",
      "type": "event"
    },
    {
      "inputs": [],
      "name": "WBNB",
      "outputs": [
        {
          "internalType": "address",
          "name": "",
          "type": "address"
        }
      ],
      "stateMutability": "view",
      "type": "function",
      "constant": true
    },
    {
      "inputs": [],
      "name": "adminAddress",
      "outputs": [
        {
          "internalType": "address",
          "name": "",
          "type": "address"
        }
      ],
      "stateMutability": "view",
      "type": "function",
      "constant": true
    },
    {
      "inputs": [],
      "name": "bonusEndBlock",
      "outputs": [
        {
          "internalType": "uint256",
          "name": "",
          "type": "uint256"
        }
      ],
      "stateMutability": "view",
      "type": "function",
      "constant": true
    },
    {
      "inputs": [],
      "name": "limitAmount",
      "outputs": [
        {
          "internalType": "uint256",
          "name": "",
          "type": "uint256"
        }
      ],
      "stateMutability": "view",
      "type": "function",
      "constant": true
    },
    {
      "inputs": [],
      "name": "owner",
      "outputs": [
        {
          "internalType": "address",
          "name": "",
          "type": "address"
        }
      ],
      "stateMutability": "view",
      "type": "function",
      "constant": true
    },
    {
      "inputs": [
        {
          "internalType": "uint256",
          "name": "",
          "type": "uint256"
        }
      ],
      "name": "poolInfo",
      "outputs": [
        {
          "internalType": "contract IBEP20",
          "name": "lpToken",
          "type": "address"
        },
        {
          "internalType": "uint256",
          "name": "allocPoint",
          "type": "uint256"
        },
        {
          "internalType": "uint256",
          "name": "lastRewardBlock",
          "type": "uint256"
        },
        {
          "internalType": "uint256",
          "name": "accIniPerShare",
          "type": "uint256"
        }
      ],
      "stateMutability": "view",
      "type": "function",
      "constant": true
    },
    {
      "inputs": [],
      "name": "renounceOwnership",
      "outputs": [],
      "stateMutability": "nonpayable",
      "type": "function"
    },
    {
      "inputs": [],
      "name": "rewardPerBlock",
      "outputs": [
        {
          "internalType": "uint256",
          "name": "",
          "type": "uint256"
        }
      ],
      "stateMutability": "view",
      "type": "function",
      "constant": true
    },
    {
      "inputs": [],
      "name": "rewardToken",
      "outputs": [
        {
          "internalType": "contract IBEP20",
          "name": "",
          "type": "address"
        }
      ],
      "stateMutability": "view",
      "type": "function",
      "constant": true
    },
    {
      "inputs": [],
      "name": "startBlock",
      "outputs": [
        {
          "internalType": "uint256",
          "name": "",
          "type": "uint256"
        }
      ],
      "stateMutability": "view",
      "type": "function",
      "constant": true
    },
    {
      "inputs": [],
      "name": "totalAllocPoint",
      "outputs": [
        {
          "internalType": "uint256",
          "name": "",
          "type": "uint256"
        }
      ],
      "stateMutability": "view",
      "type": "function",
      "constant": true
    },
    {
      "inputs": [
        {
          "internalType": "address",
          "name": "newOwner",
          "type": "address"
        }
      ],
      "name": "transferOwnership",
      "outputs": [],
      "stateMutability": "nonpayable",
      "type": "function"
    },
    {
      "inputs": [
        {
          "internalType": "address",
          "name": "",
          "type": "address"
        }
      ],
      "name": "userInfo",
      "outputs": [
        {
          "internalType": "uint256",
          "name": "amount",
          "type": "uint256"
        },
        {
          "internalType": "uint256",
          "name": "rewardDebt",
          "type": "uint256"
        },
        {
          "internalType": "bool",
          "name": "inBlackList",
          "type": "bool"
        }
      ],
      "stateMutability": "view",
      "type": "function",
      "constant": true
    },
    {
      "stateMutability": "payable",
      "type": "receive",
      "payable": true
    },
    {
      "inputs": [
        {
          "internalType": "address",
          "name": "_adminAddress",
          "type": "address"
        }
      ],
      "name": "setAdmin",
      "outputs": [],
      "stateMutability": "nonpayable",
      "type": "function"
    },
    {
      "inputs": [
        {
          "internalType": "address",
          "name": "_blacklistAddress",
          "type": "address"
        }
      ],
      "name": "setBlackList",
      "outputs": [],
      "stateMutability": "nonpayable",
      "type": "function"
    },
    {
      "inputs": [
        {
          "internalType": "address",
          "name": "_blacklistAddress",
          "type": "address"
        }
      ],
      "name": "removeBlackList",
      "outputs": [],
      "stateMutability": "nonpayable",
      "type": "function"
    },
    {
      "inputs": [
        {
          "internalType": "uint256",
          "name": "_amount",
          "type": "uint256"
        }
      ],
      "name": "setLimitAmount",
      "outputs": [],
      "stateMutability": "nonpayable",
      "type": "function"
    },
    {
      "inputs": [
        {
          "internalType": "uint256",
          "name": "_from",
          "type": "uint256"
        },
        {
          "internalType": "uint256",
          "name": "_to",
          "type": "uint256"
        }
      ],
      "name": "getMultiplier",
      "outputs": [
        {
          "internalType": "uint256",
          "name": "",
          "type": "uint256"
        }
      ],
      "stateMutability": "view",
      "type": "function",
      "constant": true
    },
    {
      "inputs": [
        {
          "internalType": "address",
          "name": "_user",
          "type": "address"
        }
      ],
      "name": "pendingReward",
      "outputs": [
        {
          "internalType": "uint256",
          "name": "",
          "type": "uint256"
        }
      ],
      "stateMutability": "view",
      "type": "function",
      "constant": true
    },
    {
      "inputs": [
        {
          "internalType": "uint256",
          "name": "_pid",
          "type": "uint256"
        }
      ],
      "name": "updatePool",
      "outputs": [],
      "stateMutability": "nonpayable",
      "type": "function"
    },
    {
      "inputs": [],
      "name": "massUpdatePools",
      "outputs": [],
      "stateMutability": "nonpayable",
      "type": "function"
    },
    {
      "inputs": [],
      "name": "deposit",
      "outputs": [],
      "stateMutability": "payable",
      "type": "function",
      "payable": true
    },
    {
      "inputs": [
        {
          "internalType": "uint256",
          "name": "_amount",
          "type": "uint256"
        }
      ],
      "name": "withdraw",
      "outputs": [],
      "stateMutability": "nonpayable",
      "type": "function"
    },
    {
      "inputs": [],
      "name": "emergencyWithdraw",
      "outputs": [],
      "stateMutability": "nonpayable",
      "type": "function"
    },
    {
      "inputs": [
        {
          "internalType": "uint256",
          "name": "_amount",
          "type": "uint256"
        }
      ],
      "name": "emergencyRewardWithdraw",
      "outputs": [],
      "stateMutability": "nonpayable",
      "type": "function"
    }
  ],
  "bytecode": "0x60a0604052678ac7230489e80000600655600060075534801561002157600080fd5b50604051611c89380380611c89833981810160405260e081101561004457600080fd5b508051602082015160408301516060840151608085015160a086015160c0909601519495939492939192909190600061007b610201565b600080546001600160a01b0319166001600160a01b0383169081178255604051929350917f8be0079c531659141344cd1fd0a4f28419497f9722a3daafe3b4186f6b6457e0908290a350600180546001600160a01b03199081166001600160a01b03988916178255600396909655600885905560099390935560028054861692871692909217909155606090811b6001600160601b031916608090815260408051918201815296861681526103e86020820181815297820194855260009282018381526004805495860181559384905291517f8a35acfbc15ff81a39ae7d344fd709f28e8600b4aa8c65c6b64bfe7fe36bd19b949093029384018054909616929096169190911790935593517f8a35acfbc15ff81a39ae7d344fd709f28e8600b4aa8c65c6b64bfe7fe36bd19c850155517f8a35acfbc15ff81a39ae7d344fd709f28e8600b4aa8c65c6b64bfe7fe36bd19d840155517f8a35acfbc15ff81a39ae7d344fd709f28e8600b4aa8c65c6b64bfe7fe36bd19e90920191909155600755610205565b3390565b60805160601c611a53610236600039806101aa52806107ba5280610d505280610ec95280610f5e5250611a536000f3fe60806040526004361061019a5760003560e01c806372700241116100e1578063d0e30db01161008a578063f2fde38b11610064578063f2fde38b146104fe578063f40f0f5214610531578063f7c618c114610564578063fc6f946814610579576101d3565b8063d0e30db0146104ae578063db2e21bc146104b6578063e4997dc5146104cb576101d3565b80638da5cb5b116100bb5780638da5cb5b146104385780638dbb1e3a146104695780638dd9500214610499576101d3565b806372700241146103db57806378abafaf1461040e5780638ae39cac14610423576101d3565b80633279beab11610143578063630b5ba11161011d578063630b5ba11461037e578063704b6c0214610393578063715018a6146103c6576101d3565b80633279beab1461031557806348cd4cb11461033f57806351eb05a614610354576101d3565b80631aed6553116101745780631aed6553146102ac5780631f107a45146102c15780632e1a7d4d146102eb576101d3565b80631526fe27146101d857806317caf6f1146102325780631959a00214610259576101d3565b366101d357336001600160a01b037f000000000000000000000000000000000000000000000000000000000000000016146101d157fe5b005b600080fd5b3480156101e457600080fd5b50610202600480360360208110156101fb57600080fd5b503561058e565b604080516001600160a01b0390951685526020850193909352838301919091526060830152519081900360800190f35b34801561023e57600080fd5b506102476105cf565b60408051918252519081900360200190f35b34801561026557600080fd5b5061028c6004803603602081101561027c57600080fd5b50356001600160a01b03166105d5565b604080519384526020840192909252151582820152519081900360600190f35b3480156102b857600080fd5b506102476105f9565b3480156102cd57600080fd5b506101d1600480360360208110156102e457600080fd5b50356105ff565b3480156102f757600080fd5b506101d16004803603602081101561030e57600080fd5b503561066e565b34801561032157600080fd5b506101d16004803603602081101561033857600080fd5b503561087f565b34801561034b57600080fd5b506102476109cd565b34801561036057600080fd5b506101d16004803603602081101561037757600080fd5b50356109d3565b34801561038a57600080fd5b506101d1610b02565b34801561039f57600080fd5b506101d1600480360360208110156103b657600080fd5b50356001600160a01b0316610b25565b3480156103d257600080fd5b506101d1610bbe565b3480156103e757600080fd5b506101d1600480360360208110156103fe57600080fd5b50356001600160a01b0316610c7f565b34801561041a57600080fd5b50610247610cf3565b34801561042f57600080fd5b50610247610cf9565b34801561044457600080fd5b5061044d610cff565b604080516001600160a01b039092168252519081900360200190f35b34801561047557600080fd5b506102476004803603604081101561048c57600080fd5b5080359060200135610d0e565b3480156104a557600080fd5b5061044d610d4e565b6101d1610d72565b3480156104c257600080fd5b506101d1611042565b3480156104d757600080fd5b506101d1600480360360208110156104ee57600080fd5b50356001600160a01b03166110d5565b34801561050a57600080fd5b506101d16004803603602081101561052157600080fd5b50356001600160a01b0316611146565b34801561053d57600080fd5b506102476004803603602081101561055457600080fd5b50356001600160a01b03166111b9565b34801561057057600080fd5b5061044d611311565b34801561058557600080fd5b5061044d611320565b6004818154811061059b57fe5b600091825260209091206004909102018054600182015460028301546003909301546001600160a01b039092169350919084565b60075481565b60056020526000908152604090208054600182015460029092015490919060ff1683565b60095481565b61060761132f565b6000546001600160a01b03908116911614610669576040805162461bcd60e51b815260206004820181905260248201527f4f776e61626c653a2063616c6c6572206973206e6f7420746865206f776e6572604482015290519081900360640190fd5b600655565b6000600460008154811061067e57fe5b60009182526020808320338452600590915260409092208054600490920290920192508311156106f5576040805162461bcd60e51b815260206004820152601260248201527f77697468647261773a206e6f7420676f6f640000000000000000000000000000604482015290519081900360640190fd5b6106ff60006109d3565b6000610739826001015461073364e8d4a5100061072d8760030154876000015461133390919063ffffffff16565b90611393565b906113d5565b90506000811180156107505750600282015460ff16155b1561076c5760015461076c906001600160a01b03163383611417565b831561082357815461077e90856113d5565b8255604080517f2e1a7d4d0000000000000000000000000000000000000000000000000000000081526004810186905290516001600160a01b037f00000000000000000000000000000000000000000000000000000000000000001691632e1a7d4d91602480830192600092919082900301818387803b15801561080157600080fd5b505af1158015610815573d6000803e3d6000fd5b505050506108233385611483565b6003830154825461083e9164e8d4a510009161072d91611333565b600183015560408051858152905133917f884edad9ce6fa2440d8a54cc123490eb96d2768479d49ff9c7366125a9424364919081900360200190a250505050565b61088761132f565b6000546001600160a01b039081169116146108e9576040805162461bcd60e51b815260206004820181905260248201527f4f776e61626c653a2063616c6c6572206973206e6f7420746865206f776e6572604482015290519081900360640190fd5b600154604080516370a0823160e01b815230600482015290516001600160a01b03909216916370a0823191602480820192602092909190829003018186803b15801561093457600080fd5b505afa158015610948573d6000803e3d6000fd5b505050506040513d602081101561095e57600080fd5b505181106109b3576040805162461bcd60e51b815260206004820152601060248201527f6e6f7420656e6f75676820746f6b656e00000000000000000000000000000000604482015290519081900360640190fd5b6001546109ca906001600160a01b03163383611417565b50565b60085481565b6000600482815481106109e257fe5b9060005260206000209060040201905080600201544311610a0357506109ca565b8054604080516370a0823160e01b815230600482015290516000926001600160a01b0316916370a08231916024808301926020929190829003018186803b158015610a4d57600080fd5b505afa158015610a61573d6000803e3d6000fd5b505050506040513d6020811015610a7757600080fd5b5051905080610a8d5750436002909101556109ca565b6000610a9d836002015443610d0e565b90506000610aca60075461072d8660010154610ac46003548761133390919063ffffffff16565b90611333565b9050610aed610ae28461072d8464e8d4a51000611333565b600386015490611518565b60038501555050436002909201919091555050565b60045460005b81811015610b2157610b19816109d3565b600101610b08565b5050565b610b2d61132f565b6000546001600160a01b03908116911614610b8f576040805162461bcd60e51b815260206004820181905260248201527f4f776e61626c653a2063616c6c6572206973206e6f7420746865206f776e6572604482015290519081900360640190fd5b6002805473ffffffffffffffffffffffffffffffffffffffff19166001600160a01b0392909216919091179055565b610bc661132f565b6000546001600160a01b03908116911614610c28576040805162461bcd60e51b815260206004820181905260248201527f4f776e61626c653a2063616c6c6572206973206e6f7420746865206f776e6572604482015290519081900360640190fd5b600080546040516001600160a01b03909116907f8be0079c531659141344cd1fd0a4f28419497f9722a3daafe3b4186f6b6457e0908390a36000805473ffffffffffffffffffffffffffffffffffffffff19169055565b6002546001600160a01b03163314610ccc576040805162461bcd60e51b815260206004820152600b60248201526a61646d696e3a207775743f60a81b604482015290519081900360640190fd5b6001600160a01b03166000908152600560205260409020600201805460ff19166001179055565b60065481565b60035481565b6000546001600160a01b031690565b60006009548211610d2a57610d2382846113d5565b9050610d48565b6009548310610d3b57506000610d48565b600954610d2390846113d5565b92915050565b7f000000000000000000000000000000000000000000000000000000000000000081565b60006004600081548110610d8257fe5b60009182526020808320338452600590915260409092206006548154600490930290930193509190610db49034611518565b1115610e07576040805162461bcd60e51b815260206004820152600e60248201527f6578636565642074686520746f70000000000000000000000000000000000000604482015290519081900360640190fd5b600281015460ff1615610e61576040805162461bcd60e51b815260206004820152600d60248201527f696e20626c61636b206c69737400000000000000000000000000000000000000604482015290519081900360640190fd5b610e6b60006109d3565b805415610ec1576000610ea0826001015461073364e8d4a5100061072d8760030154876000015461133390919063ffffffff16565b90508015610ebf57600154610ebf906001600160a01b03163383611417565b505b3415610fe8577f00000000000000000000000000000000000000000000000000000000000000006001600160a01b031663d0e30db0346040518263ffffffff1660e01b81526004016000604051808303818588803b158015610f2257600080fd5b505af1158015610f36573d6000803e3d6000fd5b50506040805163a9059cbb60e01b815230600482015234602482015290516001600160a01b037f000000000000000000000000000000000000000000000000000000000000000016945063a9059cbb9350604480830193506020928290030181600087803b158015610fa757600080fd5b505af1158015610fbb573d6000803e3d6000fd5b505050506040513d6020811015610fd157600080fd5b5051610fd957fe5b8054610fe59034611518565b81555b600382015481546110039164e8d4a510009161072d91611333565b600182015560408051348152905133917fe1fffcc4923d04b559f4d29a8bfc6cda04eb5b0d3c460751c2402c5c5cc9109c919081900360200190a25050565b6000600460008154811061105257fe5b600091825260208083203380855260059092526040909320805460049093029093018054909450611090926001600160a01b03919091169190611417565b8054604080519182525133917f5fafa99d0643513820be26656b45130b01e1c03062e1266bf36f88cbd3bd9695919081900360200190a2600080825560019091015550565b6002546001600160a01b03163314611122576040805162461bcd60e51b815260206004820152600b60248201526a61646d696e3a207775743f60a81b604482015290519081900360640190fd5b6001600160a01b03166000908152600560205260409020600201805460ff19169055565b61114e61132f565b6000546001600160a01b039081169116146111b0576040805162461bcd60e51b815260206004820181905260248201527f4f776e61626c653a2063616c6c6572206973206e6f7420746865206f776e6572604482015290519081900360640190fd5b6109ca81611572565b60008060046000815481106111ca57fe5b600091825260208083206001600160a01b03878116855260058352604080862060049586029093016003810154815483516370a0823160e01b81523098810198909852925191985093969395939491909216926370a082319260248083019392829003018186803b15801561123e57600080fd5b505afa158015611252573d6000803e3d6000fd5b505050506040513d602081101561126857600080fd5b505160028501549091504311801561127f57508015155b156112df576000611294856002015443610d0e565b905060006112bb60075461072d8860010154610ac46003548761133390919063ffffffff16565b90506112da6112d38461072d8464e8d4a51000611333565b8590611518565b935050505b611307836001015461073364e8d4a5100061072d86886000015461133390919063ffffffff16565b9695505050505050565b6001546001600160a01b031681565b6002546001600160a01b031681565b3390565b60008261134257506000610d48565b8282028284828161134f57fe5b041461138c5760405162461bcd60e51b81526004018080602001828103825260218152602001806119da6021913960400191505060405180910390fd5b9392505050565b600061138c83836040518060400160405280601a81526020017f536166654d6174683a206469766973696f6e206279207a65726f00000000000081525061161f565b600061138c83836040518060400160405280601e81526020017f536166654d6174683a207375627472616374696f6e206f766572666c6f7700008152506116c1565b604080516001600160a01b038416602482015260448082018490528251808303909101815260649091019091526020810180517bffffffffffffffffffffffffffffffffffffffffffffffffffffffff1663a9059cbb60e01b17905261147e90849061171b565b505050565b6040516000906001600160a01b038416906159d890849084818181858888f193505050503d80600081146114d3576040519150601f19603f3d011682016040523d82523d6000602084013e6114d8565b606091505b505090508061147e5760405162461bcd60e51b81526004018080602001828103825260238152602001806119fb6023913960400191505060405180910390fd5b60008282018381101561138c576040805162461bcd60e51b815260206004820152601b60248201527f536166654d6174683a206164646974696f6e206f766572666c6f770000000000604482015290519081900360640190fd5b6001600160a01b0381166115b75760405162461bcd60e51b81526004018080602001828103825260268152602001806119b46026913960400191505060405180910390fd5b600080546040516001600160a01b03808516939216917f8be0079c531659141344cd1fd0a4f28419497f9722a3daafe3b4186f6b6457e091a36000805473ffffffffffffffffffffffffffffffffffffffff19166001600160a01b0392909216919091179055565b600081836116ab5760405162461bcd60e51b81526004018080602001828103825283818151815260200191508051906020019080838360005b83811015611670578181015183820152602001611658565b50505050905090810190601f16801561169d5780820380516001836020036101000a031916815260200191505b509250505060405180910390fd5b5060008385816116b757fe5b0495945050505050565b600081848411156117135760405162461bcd60e51b8152602060048201818152835160248401528351909283926044909101919085019080838360008315611670578181015183820152602001611658565b505050900390565b6060611770826040518060400160405280602081526020017f5361666542455032303a206c6f772d6c6576656c2063616c6c206661696c6564815250856001600160a01b03166117cc9092919063ffffffff16565b80519091501561147e5780806020019051602081101561178f57600080fd5b505161147e5760405162461bcd60e51b815260040180806020018281038252602a81526020018061198a602a913960400191505060405180910390fd5b60606117db84846000856117e3565b949350505050565b60606117ee85611950565b61183f576040805162461bcd60e51b815260206004820152601d60248201527f416464726573733a2063616c6c20746f206e6f6e2d636f6e7472616374000000604482015290519081900360640190fd5b60006060866001600160a01b031685876040518082805190602001908083835b6020831061187e5780518252601f19909201916020918201910161185f565b6001836020036101000a03801982511681845116808217855250505050505090500191505060006040518083038185875af1925050503d80600081146118e0576040519150601f19603f3d011682016040523d82523d6000602084013e6118e5565b606091505b509150915081156118f95791506117db9050565b8051156119095780518082602001fd5b60405162461bcd60e51b8152602060048201818152865160248401528651879391928392604401919085019080838360008315611670578181015183820152602001611658565b6000813f7fc5d2460186f7233c927e7db2dcc703c0e500b653ca82273b7bfad8045d85a4708181148015906117db57505015159291505056fe5361666542455032303a204245503230206f7065726174696f6e20646964206e6f7420737563636565644f776e61626c653a206e6577206f776e657220697320746865207a65726f2061646472657373536166654d6174683a206d756c7469706c69636174696f6e206f766572666c6f775472616e7366657248656c7065723a204554485f5452414e534645525f4641494c4544a26469706673582212200c095ce0d80ae89c74338469e4e9be0546cbcf40be722fba3055eab9073b94d564736f6c634300060c0033",
  "immutableReferences": {
    "53": [
      {
        "length": 32,
        "start": 426
      },
      {
        "length": 32,
        "start": 1978
      },
      {
        "length": 32,
        "start": 3408
      },
      {
        "length": 32,
        "start": 3785
      },
      {
        "length": 32,
        "start": 3934
      }
    ]
  },
  "source": "pragma solidity 0.6.12;\n\nimport '@pancakeswap/pancake-swap-lib/contracts/math/SafeMath.sol';\nimport '@pancakeswap/pancake-swap-lib/contracts/token/BEP20/IBEP20.sol';\nimport '@pancakeswap/pancake-swap-lib/contracts/token/BEP20/SafeBEP20.sol';\nimport '@pancakeswap/pancake-swap-lib/contracts/access/Ownable.sol';\n\n// import \"@nomiclabs/buidler/console.sol\";\n\ninterface IWBNB {\n    function deposit() external payable;\n    function transfer(address to, uint256 value) external returns (bool);\n    function withdraw(uint256) external;\n}\n\ncontract BnbStaking is Ownable {\n    using SafeMath for uint256;\n    using SafeBEP20 for IBEP20;\n\n    // Info of each user.\n    struct UserInfo {\n        uint256 amount;     // How many LP tokens the user has provided.\n        uint256 rewardDebt; // Reward debt. See explanation below.\n        bool inBlackList;\n    }\n\n    // Info of each pool.\n    struct PoolInfo {\n        IBEP20 lpToken;           // Address of LP token contract.\n        uint256 allocPoint;       // How many allocation points assigned to this pool. INIs to distribute per block.\n        uint256 lastRewardBlock;  // Last block number that INIs distribution occurs.\n        uint256 accIniPerShare; // Accumulated INIs per share, times 1e12. See below.\n    }\n\n    // The REWARD TOKEN\n    IBEP20 public rewardToken;\n\n    // adminAddress\n    address public adminAddress;\n\n\n    // WBNB\n    address public immutable WBNB;\n\n    // INI tokens created per block.\n    uint256 public rewardPerBlock;\n\n    // Info of each pool.\n    PoolInfo[] public poolInfo;\n    // Info of each user that stakes LP tokens.\n    mapping (address => UserInfo) public userInfo;\n    // limit 10 BNB here\n    uint256 public limitAmount = 10000000000000000000;\n    // Total allocation poitns. Must be the sum of all allocation points in all pools.\n    uint256 public totalAllocPoint = 0;\n    // The block number when INI mining starts.\n    uint256 public startBlock;\n    // The block number when INI mining ends.\n    uint256 public bonusEndBlock;\n\n    event Deposit(address indexed user, uint256 amount);\n    event Withdraw(address indexed user, uint256 amount);\n    event EmergencyWithdraw(address indexed user, uint256 amount);\n\n    constructor(\n        IBEP20 _lp,\n        IBEP20 _rewardToken,\n        uint256 _rewardPerBlock,\n        uint256 _startBlock,\n        uint256 _bonusEndBlock,\n        address _adminAddress,\n        address _wbnb\n    ) public {\n        rewardToken = _rewardToken;\n        rewardPerBlock = _rewardPerBlock;\n        startBlock = _startBlock;\n        bonusEndBlock = _bonusEndBlock;\n        adminAddress = _adminAddress;\n        WBNB = _wbnb;\n\n        // staking pool\n        poolInfo.push(PoolInfo({\n            lpToken: _lp,\n            allocPoint: 1000,\n            lastRewardBlock: startBlock,\n            accIniPerShare: 0\n        }));\n\n        totalAllocPoint = 1000;\n\n    }\n\n    modifier onlyAdmin() {\n        require(msg.sender == adminAddress, \"admin: wut?\");\n        _;\n    }\n\n    receive() external payable {\n        assert(msg.sender == WBNB); // only accept BNB via fallback from the WBNB contract\n    }\n\n    // Update admin address by the previous dev.\n    function setAdmin(address _adminAddress) public onlyOwner {\n        adminAddress = _adminAddress;\n    }\n\n    function setBlackList(address _blacklistAddress) public onlyAdmin {\n        userInfo[_blacklistAddress].inBlackList = true;\n    }\n\n    function removeBlackList(address _blacklistAddress) public onlyAdmin {\n        userInfo[_blacklistAddress].inBlackList = false;\n    }\n\n    // Set the limit amount. Can only be called by the owner.\n    function setLimitAmount(uint256 _amount) public onlyOwner {\n        limitAmount = _amount;\n    }\n\n    // Return reward multiplier over the given _from to _to block.\n    function getMultiplier(uint256 _from, uint256 _to) public view returns (uint256) {\n        if (_to <= bonusEndBlock) {\n            return _to.sub(_from);\n        } else if (_from >= bonusEndBlock) {\n            return 0;\n        } else {\n            return bonusEndBlock.sub(_from);\n        }\n    }\n\n    // View function to see pending Reward on frontend.\n    function pendingReward(address _user) external view returns (uint256) {\n        PoolInfo storage pool = poolInfo[0];\n        UserInfo storage user = userInfo[_user];\n        uint256 accIniPerShare = pool.accIniPerShare;\n        uint256 lpSupply = pool.lpToken.balanceOf(address(this));\n        if (block.number > pool.lastRewardBlock && lpSupply != 0) {\n            uint256 multiplier = getMultiplier(pool.lastRewardBlock, block.number);\n            uint256 iniReward = multiplier.mul(rewardPerBlock).mul(pool.allocPoint).div(totalAllocPoint);\n            accIniPerShare = accIniPerShare.add(iniReward.mul(1e12).div(lpSupply));\n        }\n        return user.amount.mul(accIniPerShare).div(1e12).sub(user.rewardDebt);\n    }\n\n    // Update reward variables of the given pool to be up-to-date.\n    function updatePool(uint256 _pid) public {\n        PoolInfo storage pool = poolInfo[_pid];\n        if (block.number <= pool.lastRewardBlock) {\n            return;\n        }\n        uint256 lpSupply = pool.lpToken.balanceOf(address(this));\n        if (lpSupply == 0) {\n            pool.lastRewardBlock = block.number;\n            return;\n        }\n        uint256 multiplier = getMultiplier(pool.lastRewardBlock, block.number);\n        uint256 iniReward = multiplier.mul(rewardPerBlock).mul(pool.allocPoint).div(totalAllocPoint);\n        pool.accIniPerShare = pool.accIniPerShare.add(iniReward.mul(1e12).div(lpSupply));\n        pool.lastRewardBlock = block.number;\n    }\n\n    // Update reward variables for all pools. Be careful of gas spending!\n    function massUpdatePools() public {\n        uint256 length = poolInfo.length;\n        for (uint256 pid = 0; pid < length; ++pid) {\n            updatePool(pid);\n        }\n    }\n\n\n    // Stake tokens to SmartChef\n    function deposit() public payable {\n        PoolInfo storage pool = poolInfo[0];\n        UserInfo storage user = userInfo[msg.sender];\n\n        require (user.amount.add(msg.value) <= limitAmount, 'exceed the top');\n        require (!user.inBlackList, 'in black list');\n\n        updatePool(0);\n        if (user.amount > 0) {\n            uint256 pending = user.amount.mul(pool.accIniPerShare).div(1e12).sub(user.rewardDebt);\n            if(pending > 0) {\n                rewardToken.safeTransfer(address(msg.sender), pending);\n            }\n        }\n        if(msg.value > 0) {\n            IWBNB(WBNB).deposit{value: msg.value}();\n            assert(IWBNB(WBNB).transfer(address(this), msg.value));\n            user.amount = user.amount.add(msg.value);\n        }\n        user.rewardDebt = user.amount.mul(pool.accIniPerShare).div(1e12);\n\n        emit Deposit(msg.sender, msg.value);\n    }\n\n    function safeTransferBNB(address to, uint256 value) internal {\n        (bool success, ) = to.call{gas: 23000, value: value}(\"\");\n        // (bool success,) = to.call{value:value}(new bytes(0));\n        require(success, 'TransferHelper: ETH_TRANSFER_FAILED');\n    }\n\n    // Withdraw tokens from STAKING.\n    function withdraw(uint256 _amount) public {\n        PoolInfo storage pool = poolInfo[0];\n        UserInfo storage user = userInfo[msg.sender];\n        require(user.amount >= _amount, \"withdraw: not good\");\n        updatePool(0);\n        uint256 pending = user.amount.mul(pool.accIniPerShare).div(1e12).sub(user.rewardDebt);\n        if(pending > 0 && !user.inBlackList) {\n            rewardToken.safeTransfer(address(msg.sender), pending);\n        }\n        if(_amount > 0) {\n            user.amount = user.amount.sub(_amount);\n            IWBNB(WBNB).withdraw(_amount);\n            safeTransferBNB(address(msg.sender), _amount);\n        }\n        user.rewardDebt = user.amount.mul(pool.accIniPerShare).div(1e12);\n\n        emit Withdraw(msg.sender, _amount);\n    }\n\n    // Withdraw without caring about rewards. EMERGENCY ONLY.\n    function emergencyWithdraw() public {\n        PoolInfo storage pool = poolInfo[0];\n        UserInfo storage user = userInfo[msg.sender];\n        pool.lpToken.safeTransfer(address(msg.sender), user.amount);\n        emit EmergencyWithdraw(msg.sender, user.amount);\n        user.amount = 0;\n        user.rewardDebt = 0;\n    }\n\n    // Withdraw reward. EMERGENCY ONLY.\n    function emergencyRewardWithdraw(uint256 _amount) public onlyOwner {\n        require(_amount < rewardToken.balanceOf(address(this)), 'not enough token');\n        rewardToken.safeTransfer(address(msg.sender), _amount);\n    }\n\n}\n",
  "sourcePath": "/media/ebundala/data46/data/my_projects/projects/iniswap/iniswap-farm/contracts/BnbStaking.sol",
  "compiler": {
    "name": "solc",
    "version": "0.6.12+commit.27d51765.Emscripten.clang"
  },
  "schemaVersion": "3.4.3",
  "updatedAt": "2022-02-02T17:01:53.498Z",
  "networkType": "ethereum",
  "devdoc": {
    "kind": "dev",
    "methods": {
      "owner()": {
        "details": "Returns the address of the current owner."
      },
      "renounceOwnership()": {
        "details": "Leaves the contract without owner. It will not be possible to call `onlyOwner` functions anymore. Can only be called by the current owner. NOTE: Renouncing ownership will leave the contract without an owner, thereby removing any functionality that is only available to the owner."
      },
      "transferOwnership(address)": {
        "details": "Transfers ownership of the contract to a new account (`newOwner`). Can only be called by the current owner."
      }
    },
    "version": 1
  },
  "userdoc": {
    "kind": "user",
    "methods": {},
    "version": 1
  }
}